:020000040002F8
:10300000B84A00204D330200553302005733020006
:10301000593302005B3302005D3302000000000000
:103020000000000000000000000000005F3302000C
:1030300061330200000000006333020065330200C8
:10304000D535020067330200D13902005136020043
:103050006733020067330200F53302006733020072
:1030600067330200853902006733020067330200CC
:1030700067330200673302006733020067330200E0
:10308000673302002D360200673302006733020007
:1030900061360200673302006536020067330200C2
:1030A00067330200673302006733020067330200B0
:1030B00067330200673302000000000000000000D8
:1030C0006733020067330200673302006733020090
:1030D000673302006733020067330200000000001C
:1030E00000000000000000000000000000000000E0
:1030F00000000000000000000000000000000000D0
:1031000000000000000000000000000000000000BF
:1031100000000000000000000000000000000000AF
:10312000000000000000000000000000000000009F
:10313000000000000000000000000000000000008F
:10314000000000000000000000000000000000007F
:10315000000000000000000000000000000000006F
:10316000000000000000000000000000000000005F
:10317000000000000000000000000000000000004F
:10318000000000000000000000000000000000003F
:10319000000000000000000000000000000000002F
:1031A000000000000000000000000000000000001F
:1031B000000000000000000000000000000000000F
:1031C00000000000000000000000000000000000FF
:1031D00000000000000000000000000000000000EF
:1031E00000000000000000000000000000000000DF
:1031F00000000000000000000000000000000000CF
:10320000DFF80CD000F0E4F8004800477D4C0200E5
:10321000B84A002030B4044654E8000F0D4644E894
:103220000053002BF8D1156030BC704730B4044611
:1032300054E8000F40EA010544E80053002BF7D1A1
:10324000156030BC704730B4044654E8000F00EA03
:10325000010544E80053002BF7D1156030BC7047DE
:1032600030B4044654E8000F80EA010544E80053F6
:10327000002BF7D1156030BC704730B4044654E8D9
:10328000000F00EB010544E80053002BF7D1156057
:1032900030BC704730B4044654E8000FA0EB010581
:1032A00044E80053002BF7D1156030BC7047000094
:1032B00030B4044654E8000F0D4644E80053002B98
:1032C000F8D1156030BC704730B4044654E8000FA4
:1032D00040EA010544E80053002BF7D1156030BCEB
:1032E000704730B4044654E8000F00EA010544E892
:1032F0000053002BF7D1156030BC704730B4044642
:1033000054E8000F80EA010544E80053002BF7D190
:10331000156030BC704730B4044654E8000F00EB31
:10332000010544E80053002BF7D1156030BC70470D
:1033300030B4044654E8000FA0EB010544E8005304
:10334000002BF7D1156030BC70470000064880475D
:1033500006480047FEE7FEE7FEE7FEE7FEE7FEE77A
:10336000FEE7FEE7FEE7FEE76936020001320200F3
:1033700000487047BC84020040EA01039B0703D069
:1033800009E008C9121F08C0042AFAD203E011F8A4
:10339000013B00F8013B521EF9D27047D2B201E066
:1033A00000F8012B491EFBD270470022F6E710B54A
:1033B00013460A4604461946FFF7F0FF204610BDA3
:1033C000421C10F8011B0029FBD1801A7047000035
:1033D000064C074D06E0E06840F0010394E8070062
:1033E00098471034AC42F6D3FFF70EFF708C020002
:1033F000908C02002DE9F04700268CB0DFF8689130
:10340000B0464FF48075012437460696284602F0F0
:103410005FFF38B1D9F80403204203D0284602F0F8
:103420004DFF26432D1D64007F1CADB2082FEDD348
:103430004FF4BE74204602F04BFF48B1204602F024
:103440003DFF46F0004606AA0121002002F004FFDD
:10345000464D16F0FF0F15D00127002437420DD03E
:1034600009EB8401D1F81005D1F81015C0F3042040
:1034700055F82420C1F3014102B190477F00641C3C
:10348000082CEBD3002E6BDA4FF0FF30CDE908802B
:1034900000263446281910F8507F90F9000027F0D4
:1034A000C008401C48D009A9404601F0B3FE78B3DB
:1034B0004FEA9719404601F09DF855F820701FB16A
:1034C000B9F1030F03D00FE0B9F1030F34D108A80D
:1034D0004FEAD80108F00702435C4FF0010C0CFAE8
:1034E00002FC43EA0C03435404A8CDF8108002F018
:1034F00039FE049900EB8100D0F8000706A9C0F35B
:10350000014A404601F086FE18B1BAF1020F03D01D
:1035100012E0BAF1030F0FD1B9F1030F08D1BAF1DC
:10352000020F1BD00221404602F0F9FD761CF6B2D4
:1035300017B149464046B847641C042CAAD3002E54
:103540000ED06A460121002002F086FE06990098FE
:10355000884205D006900898099099E70321E2E790
:103560000CB0BDE8F087000000600040D4230020CC
:1035700000F01F02012191404009800000F1E0208D
:10358000C0F88012704700F01F02012191404009ED
:10359000800000F1E020C0F80011704700F01F0229
:1035A000012191404009800000F1E020C0F80012A4
:1035B00070474907090E002806DA00F00F0000F1F5
:1035C000E02080F8141D704700F1E02080F800141E
:1035D000704700002DE9F0414FF48077384601F044
:1035E000D7FE0124104EA50748B1384601F0D7FE9A
:1035F0000120C5F808037470002001F003F84FF4AF
:103600008277384601F0C4FE00280BD0384601F01E
:10361000C6FE0220C5F80803B470BDE8F0410120E1
:1036200000F0F0BFBDE8F081C02300200748002172
:10363000C0F84011C0F84411C0F84811C0F84C114E
:10364000C0F80011C0F8041104F0E4B80010014003
:103650000149024801F064B94C24002000300040C8
:1036600004F026B803F0FABAF0B5B5480023021DFD
:103670000178101D01254FF0805406290BD11678D2
:10368000360708D10678C6F30316032E06D0042E9B
:1036900004D0052E02D0062907D00EE0B4F824632A
:1036A000A84FC6F304263E6002E01678360704D120
:1036B0000678C6F30316032E02D0062904D00FE0C5
:1036C000A24FA14E7E670EE01678360708D1067825
:1036D000C6F30316032E06D0042E04D0052E02D006
:1036E000062907D00EE0D4F84462994FC6F342365B
:1036F0003E6002E01678360704D10678C6F303165A
:10370000032E02D0062906D011E0924E376827F02A
:10371000807737600EE01678360708D10678C6F352
:103720000316032E06D0042E04D0052E02D006293F
:103730000AD011E04FF08046C6F80C31C6F81031BF
:10374000834E361F336002E01678360704D10678C0
:10375000C6F30316032E02D0062905D00CE07C4FD9
:10376000032664373E600AE01678360704D10678EF
:10377000C6F30316032E02D006290DD014E0764FAF
:1037800005263E60744E78363560734E08363360D9
:103790003F263F1D3E6002E01678360704D10678CA
:1037A000C6F30316052E02D0062957D062E06B4EF1
:1037B00036686B4F3E60694E361D36683F1D3E6071
:1037C000664E083636683F1D3E60644E0C363668DD
:1037D0003F1D3E60614E103636683F1D3E605F4EB5
:1037E000143636683F1D3E605C4E183636685C4FB6
:1037F00020373E60594E1C3636683F1D3E60574E9E
:10380000203636683F1D3E60544E243636683F1DD4
:103810003E60524E283636683F1D3E604F4E2C3675
:1038200036683F1D3E604D4E303636684C4F40374F
:103830003E604A4E343636683F1D3E60474E38364D
:1038400036683F1D3E60454E3C3636683F1D3E6043
:10385000424E403636683F1D3E6002E0167836071D
:1038600008D10678C6F30316032E06D0042E04D022
:10387000052E02D0062907D019E0D4F85812394A8B
:1038800001F04F01116002E0117809070FD10078B3
:10389000C0F30310032803D0042801D0052806D163
:1038A00031480168C90702D06FF001010160D4F806
:1038B0003001062808D1D4F83401062804D12B4859
:1038C000016841F48061016022487438016841F464
:1038D00070010160BFF34F8FBFF36F8F4FF0102166
:1038E000D1F80002002803DBD1F80402002822DA14
:1038F0001F4A15601F480468002CFCD01524C1F82D
:1039000000420568002DFCD0C1F80442016800297E
:10391000FCD0136001680029FCD0BFF34F8F0D4825
:10392000F0380168144A01F4E06111430160BFF30B
:103930004F8F00BFFDE7124910480860F0BD00003E
:10394000E00F00F0403501400DF0ADBA00C0074077
:103950003C050040FCED00E010560040040400105F
:1039600020C50040E40E0040000400403C17004029
:1039700004E5014000E401400400FA050090D00392
:10398000102200202DE9F84300250F4C04274FF4A6
:10399000A078BE034FEA050908EB850006FA05F199
:1039A00022585AB1D4F804230A4207D044F80090B0
:1039B0002158064A00915168126890476D1CEDB27B
:1039C000BD42E9D3BDE8F883009000407424002094
:1039D0000448017F04480029024901D004F03BBAA1
:1039E00004F0AAB92C2400200020004002E008C8FE
:1039F000121F08C1002AFAD170477047002001E069
:103A000001C1121F002AFBD17047000001212028AC
:103A100003DA81400548014003E0402802DA2038FB
:103A2000814009B10120704700207047FC06FFBDAE
:103A3000082806D228B1012803D0042801D001208B
:103A40007047002070470000F0B593B00E4607465F
:103A50001D4614461C2107A8FFF7A7FC9DF81C0073
:103A60008DF8424040F01A0000248DF81C000E949E
:103A70009DF83800ADF8406020F00F00401C20F0A9
:103A8000F00010308DF838009DF83900142120F036
:103A90000F00401C20F0F00010308DF839009DF828
:103AA0003A0020F00600801C20F019008DF83A0042
:103AB0006846FFF77AFC10A800900EA80190072036
:103AC000ADF80800ADF80C000EA0ADF80A40006893
:103AD000119011A8049005AB6A4607A93846A2DFE9
:103AE0000446BDF8140028800748032122460088B8
:103AF00001EB004005A102F0CBFD002C00D02046D8
:103B000013B0F0BD01000000742200206572726FD6
:103B10007220636F64653A202564000008B58DF853
:103B20000210ADF8000069460120A0DF08BD1FB5F6
:103B3000002002908DF80800009003904021019031
:103B40008DF80000ADF80A10ADF80C0001216846B0
:103B500073DF002801D000F049F81FBD02F044FED9
:103B600002F09AFC0028FBD1104C0121208801EBC7
:103B700000400FA102F088FD10480068C00700D087
:103B800000BE2088022101EB00400DA102F07CFD67
:103B9000BFF34F8F0948E43801680D4A01F4E06132
:103BA00011430160BFF34F8F00BFFDE77422002077
:103BB000466174616C206572726F7200F0ED00E016
:103BC00053797374656D207265736574000000002D
:103BD0000400FA050EB5ADF80010CDE901206A46E3
:103BE000002144F20100FFF7B9FF0EBD0EB5002120
:103BF0000091CDE901106A4644F20100FFF7AEFFE3
:103C00000EBD0000074B9B7823B12AB120B100689C
:103C1000037C1BB108207047072070474174426144
:103C2000002070478024002070B503F05FFA104830
:103C300000240B21047044700E4D817014206C60C0
:103C40002C706C70FFF794FC07211420FFF7B1FC77
:103C50001420FFF798FC0848046007211120FFF7A3
:103C6000A8FC0548001F0068A860002070BD000087
:103C70008024002098210020081501402DE9FC47F0
:103C8000DFF8789099F8023073B368B3052902D24F
:103C90000720BDE8FC87436933B3437C012B25D063
:103CA000002704460025884616468DF800506846D1
:103CB00000F038F801A804F0D9F9C8B10121017069
:103CC0000F4944600968C0E90218C0E904769DF80C
:103CD000040089F801009DF8000000F069F8142044
:103CE000FFF75CFC2846D4E70820D2E70F46D8E768
:103CF00004259DF8000000F05BF8F3E78024002025
:103D0000041501400649897839B130B1416921B1C2
:103D100000210174022103F059BD08207047000002
:103D20008024002070B5044603F0D2F9012803D0A6
:103D300010A1432000F0CEF8EFF3108172B61A4ABA
:103D40009368012083B990604FF0E020D0F8805153
:103D5000164B1D401560C0F88031D0F88431536097
:103D60004217C0F8842100202070002900D162B6DB
:103D700070BD00002E2E5C2E2E5C636F6D706F6E1A
:103D8000656E74735C6C69627261726965735C758F
:103D900074696C5C6170705F7574696C5F706C6184
:103DA00074666F726D2E63008C250020FC06FFBDCB
:103DB00010B5044603F08CF9012803D00DA1512061
:103DC00000F088F818498868002811D0002C0FD11D
:103DD000EFF3108072B60B684FF0E022C2F80031AA
:103DE0004B68C2F8043100228A60002800D162B614
:103DF00010BD00002E2E5C2E2E5C636F6D706F6EFA
:103E0000656E74735C6C69627261726965735C750E
:103E100074696C5C6170705F7574696C5F706C6103
:103E200074666F726D2E63008C25002070B5054698
:103E300008680C46411C04D002F0FAF9206802F030
:103E400064F96068411C02D0002102F055F928791C
:103E50001F4901EB40102968007F0028A069C1F8C4
:103E6000240523D0607D227D29681043C1F86C05AC
:103E7000D4E900122868C0F80C15C0F8142522E017
:103E8000A068411C02D0002102F036F9E068411C14
:103E900004D002F0CDF9E06802F037F9D4E902125B
:103EA0002868C0F80825C0F8101570BD607D217D18
:103EB0002A680843C2F86C05D4E900122868C0F8E3
:103EC0001425C0F80C15207D0128D9D070BD000044
:103ED0002C2400200A4601460148FFF77BBE000063
:103EE000EFBEADDE2DE9FC4700251788064615809C
:103EF00090F82D001446894630B13A46214648468E
:103F000000F01AF9050009D1B0784FF00C0A18B387
:103F10002088C846001DB84202D95046BDE8FC873B
:103F2000684679DF0028F9D12088032108F80010BD
:103F300020881921401C80B2208008F800102088B9
:103F4000401C80B2208000EB0801BDF8000003F0A7
:103F5000FAFF218808442080F0780222C8B1218825
:103F600096F9033001F1030C4846BC45D5D84254BC
:103F700021884FF0010C491C89B2218000F801C052
:103F80002188491C89B2218009F801302088401C11
:103F900020807068B8B1218890F9003001F1030CDD
:103FA0004846BC45B9D8425421880A22491C89B2E6
:103FB000218042542188491C89B2218009F80130AE
:103FC0002088401C2080308950B1CDE900474B4605
:103FD0000622022106F1080004F060F805009DD1D8
:103FE000308A50B1CDE900474B460722032106F144
:103FF000100004F053F8050090D1308B50B1CDE99A
:1040000000474B461522142106F1180004F046F82B
:10401000050083D1306A30B13B462246494600F064
:104020005BFB0500DBD1706A30B13B462246494656
:1040300000F0F6FE0500D2D196F82C0038B13B46D0
:1040400022464946304603F019FA0500C7D13078B8
:1040500038B13B4622464946304600F093FF050002
:10406000BDD128465AE7F0B50C4693B01F2107266C
:10407000ADF80010ADF80410002750B1C178490721
:104080000DD56A4602A9FFF72DFF002808D102AD21
:1040900002E00025ADF800706CB1E07810B1304658
:1040A00013B0F0BD01AA0AA92046FFF71BFF0028A4
:1040B000F6D10AAA02E00022ADF80470BDF80400AF
:1040C000C3B2BDF80000C1B2284672DFE8E70000C5
:1040D00070B5040012D001461C221448FFF74CF9B9
:1040E0001248134D0560206850B17ADF002806D1D0
:1040F0002068016829604068686005E00E2070BD96
:104100000B487BDF0028FAD108484FF6FF711438BE
:10411000084A20F8041B0549343901600021FFF7E3
:1041200071FD0028EBD0032070BD0000EC220020C0
:1041300090210020058002007CB5054608880C46C9
:104140000930904201D90C207CBD68466DDF002803
:10415000FAD121880820685420881B21401C80B295
:10416000208029542088401C80B220802844DDF81B
:1041700001100160BDF8051081802088801D80B28B
:1041800020809DF80010490800D001212954208882
:10419000401C208000207CBDF0B5404D018889B0D6
:1041A000B5F802C00446212938D012DC01294FD0CD
:1041B0003B4E03271029308807EB004015D011290A
:1041C00021D0132932D100231A46852160467FDF92
:1041D00033E03B2938D051293ED0522928D05629E6
:1041E00024D18088132176DF27E02EA102F04CFA3B
:1041F000A2886A80308809B007EB0040BDE8F04033
:104200002BA102F045BA2FA102F03EFA4FF6FF7043
:10421000688009B0BDE8F040FFF789BC002000903D
:10422000A08869468FDF34E0FFF7E0FC09B0F0BDFD
:1042300000231A4619466046A9DF0028F6D009B0C7
:10424000BDE8F040FFF7D2BC8088132176DFF4E7A9
:104250008088002166DFF0E71022A11D04A8FFF787
:104260008BF89DF810100029E0D09DF81800042864
:1042700003D0062801D00528D8D102290CD001206E
:104280008DF800004FF4C170ADF80400A0886946B5
:10429000A8DF0028C8D1C9E70220F1E7802100206B
:1042A00074220020436F6E6E6563746564000000C5
:1042B000436F6E6E6563742068616E646C65202563
:1042C00064000000446973636F6E6E6563746564B7
:1042D000000000002DE9F04701883B4E40F2F31941
:1042E0004FF6FF7510291BD011293ED0122954D04A
:1042F000502946D1C188F289841D914241D16189FA
:1043000002293ED18688304600F070FA050038D088
:1043100004F10C0000F0E2F8A8B3294630464EE064
:10432000C17B8788044601292BD1A846284600F086
:104330005DFA050017D02F800020287223484346DD
:104340004A460168C5F80A104068C5F80E0004F135
:10435000100105F10A0000F061FB6872F089002885
:104360000FD129462AE0042013E0808800F03EFAAD
:10437000040006D06068FFF7C5FC08B103F022F81E
:104380002580BDE8F087FFE76868FFF7BBFC0028E1
:10439000F7D0BDE8F04703F015B8878806463846E1
:1043A00000F024FA0400ECD02B464A4606F108013E
:1043B00004F10A0000F032FB607221463846BDE885
:1043C000F04700F0CFB90000EC220020902100203F
:1043D0002DE9F047044603883F480122A4B000F1CC
:1043E000480A102B09D0112B54D01A2B70D1217AE6
:1043F000B2EB111F53D2012352E0D0E911218A43BD
:104400000546011D12A802F092FF442212A901A83C
:10441000FEF7B2FFDFF8C0900026374609F14409E5
:104420000DF104080AE000BF08EB46001D22838856
:104430004946281D009702F03FFF761C0198B042C4
:10444000F2D8686CA688C04302F058FFA0F57F41FF
:10445000FF3917D005EB40000123868032465146D4
:10446000281D02F089FF012332464946281D02F02B
:1044700083FFE07B02280BD000231749A2884C3130
:10448000281D20E024B00420BDE8F047FFF7AEBBB4
:104490000123F2E70023A2885146001D13E0002308
:1044A0000D490546A2885031001D02F065FF207AB3
:1044B0000221B1EB101F01D2012300E000230649C5
:1044C000A2885431281D24B0BDE8F04702F054BF43
:1044D00024B0BDE8F087000008230020007800F039
:1044E00001007047F8B5871C00208DF800000E46CB
:1044F00001256846FFF716FC124C20683060D4E9AD
:104500000001401AA168091ABE1C06E000F064FB15
:10451000D4E90001401AA168091A491C8E42F5D855
:10452000A1682068084004EB8000C16841F00301E5
:10453000C1602068384420609DF80000FFF738FC17
:104540002846F8BD9826002030B482680468531CC1
:104550008360A154D0E901128A4202D330BC01F039
:104560005FBC30BC70470000034803C8814201D1E2
:1045700001207047002070479826002070B50B4D31
:1045800004468A782888032606EB004008A102F03A
:104590007FF82088502808D12888A27C06EB0040AC
:1045A000BDE8704005A102F073B870BD7422002010
:1045B00043616C6C4261636B20256400252E327868
:1045C000000000001CB513460191ADF800006A46DA
:1045D00019464FF6FF70A4DF04480321008801EB61
:1045E000004003A102F050F81CBD0000742200201E
:1045F000000000000249084490F9300070470000B4
:10460000D423002070B5084C050009D0103421686F
:10461000002907D008682060496828468847F6E7DF
:104620000834F4E770BD0000C02300202DE9F05FDE
:1046300026484168F1B3DFF898B00E688146DBF890
:10464000004087688078E11B21F07F45ED1CB0B900
:10465000DFF880804FF48030C8F84403C8F80403C2
:104660001120FEF785FF1120FEF78DFF4FF0010AA4
:10467000C8F800A02F2000F0E1FE89F802A0B542A2
:1046800000D23546124BE8193C3320F07F401860C9
:10469000DBF800105A46091B21F07F41001B20F077
:1046A0007F40C91C81420FD9106818602F2000F08C
:1046B000C5FE00E004E0BDE8F05F1120FEF76EBF2C
:1046C000BDE8F05F02F012BDBDE8F09F9821002028
:1046D00004150140001001402DE9F04117880646FD
:1046E000B81D14460D46984202D90C20BDE8F08151
:1046F0003188072206290AD34FF4486C4FF6FF731E
:10470000614501D9994202D17088062801D210462C
:10471000ECE7604501D99842F9D1994203D098421B
:1047200001D08142F3D80520E85520881221401C91
:1047300080B2208029542088401C80B220804119FA
:10474000308803F000FC2188084480B220804119A1
:10475000708803F0F8FB2188084420800020C5E71A
:10476000FFF744BA38B54A7A0F4B62B100220A7299
:104770005969002906D001228DF80020ADF8020009
:104780006846884738BD0A7A62B19B684C68024621
:1047900019462046FFF772FA0028F3D0BDE83840EA
:1047A00002F010BE5B68F1E7EC2200200E4910B564
:1047B0000A784C780023A24212D0521CD2B20A705E
:1047C000022A00D10B70084A0B780C3252F82320D1
:1047D00002608868104420F07F408860012010BD8E
:1047E0000360002010BD000098210020014603480E
:1047F00002888A4200D0002070470000D8220020A2
:104800002DE9FC5F0E008346DDE90C47C6F1000090
:1048100098469246814600D40846012503E000BF31
:1048200090FBFAF06D1C5045FADAA84500D94546D0
:1048300024B1002E01DB780700D5641EB80702D52D
:10484000B8F1000F0AD0F80708D13CB1A54205D253
:1048500020215846641EFFF777FEF6E7002E02DAA5
:104860004E462D2102E0780703D52B215846FFF74D
:104870006BFE07F0030002280BD1B8F1000F08D13E
:104880003CB1A54205D230215846641EFFF75CFEBC
:10489000F6E7CDE90047434652463146584603F015
:1048A00057FBBDE8FC9F000070B50E46044600793A
:1048B00018494FF4A27501EB4010017F2068A1B1A7
:1048C0004FF4887102F0DFFA4FF49071206802F023
:1048D000DAFA4FF49271206802F0D5FA294620687E
:1048E00002F0D1FA0C49206809E04FF48E7102F011
:1048F000B9FA2946206802F0B5FA08492068C0F8DC
:104900000413206800F0B6FE3146BDE8704000F0A8
:104910006BBE00002C240020100302008000020067
:104920007FB5054608680C4620B92EA140F2934099
:10493000FFF7D0FA94F8211094F82000CDE9000197
:1049400004F12602D11E2846E36903F075F8002819
:1049500023D194F8230008BB207B022801D0032830
:104960001CD12269E169914218D16269E261E37B5D
:1049700084F82030217E0328C1F3401184F82110EF
:1049800006D004B029462046BDE8704002F0DDBFE5
:1049900000912946204603F0D4F87FBD04F10C00B5
:1049A00001AB07C883E8070094F82300002168B131
:1049B000D5F8C404C5F8C404820701D5012002E07B
:1049C000400705D502208DF8000001E08DF80010A9
:1049D00084F82410207E4007DFD4D4E90021684603
:1049E00090477FBD2E2E5C2E2E5C636F6D706F6EB8
:1049F000656E74735C647269766572735F6E7266FD
:104A00005C7477695F6D61737465725C6E72665F0A
:104A10006472765F7477692E63000000F0B5848855
:104A2000A518944200D82246A41AC288D6189A42E1
:104A300000D81346D21A4B880788BB420CD3408853
:104A4000834209D88888A04206D3A84204D8C888DF
:104A5000904201D3B04201D90020F0BD0120F0BD49
:104A600010B502F013F918B108A18420FFF732FA4B
:104A700013490120086013480168C1F3004100296F
:104A8000FAD111490020887010BD00002E2E5C2E36
:104A90002E5C636F6D706F6E656E74735C647269AB
:104AA000766572735F6E72665C636C6F636B5C6E6F
:104AB00072665F6472765F636C6F636B2E63000077
:104AC0000C00004018040040C02300201721018082
:104AD00041800021017141711B218171C1717047B9
:104AE0002DE9F047394E002780463D46DFF8E0903B
:104AF000D6F804A057E003D00446D0F81C8035E077
:104B000099F8002002EB4201521CD2B289F8002031
:104B100009EBC10199F80230091D9A4201D189F8C7
:104B2000005048680A780446012A12D0022A02D0AE
:104B3000032A3BD108E002F019FE00B101272574D9
:104B400034E00574C06900E070680028F9D1706035
:104B50002CE0207C50BB88686060C868A060086951
:104B6000E0604869A061F07800B165606268B16892
:104B7000184B501A20F07F40984202D2A168084496
:104B800006E0881AA16820F07F40814202D9081A05
:104B9000206000E0256065600120A560207420464B
:104BA000E56102F0C5FDB8F10000A4D199F800104C
:104BB00099F801008142A3D117B97168514502D01B
:104BC0000120BDE8F0870020FBE7000098210020CD
:104BD00080240020FFFF7F0070B588B0244800F0DB
:104BE0001FFA2348001F064600F01AFA214DD5E9A6
:104BF000014105E0C0F3891202EB9050641C0444AB
:104C000004EA010005EB8000C0688207F2D00020B2
:104C10000DF1080204EA010305EB8303641CDB6861
:104C200042F82030401C0228F4D3029800F0030020
:104C3000012817D002280ED00F4940F24D10FFF77F
:104C400049F93046002101AAFEF74BFB002800D0AD
:104C50006C6008B070BD0298032101EB905004EB2A
:104C60009004EEE70298C0F383100444E9E70000E3
:104C7000B02A0020982600208C890200A4B0FEF7FC
:104C8000D3FF08B1FEF7B2FF002001F067FD08B1C5
:104C9000FEF7ACFF01F0EAFB01F0AAFF08B1FEF756
:104CA000A5FF002401A90120019401F085FE08B1AF
:104CB000FEF79CFF01A801F003FF08B1FEF796FF85
:104CC0009DF80C004AA120F00F00401C20F0F000DD
:104CD00010308DF80C000B2203A87CDF08B1FEF722
:104CE00085FF00941420ADF8000028200194ADF851
:104CF0000200ADF804406420ADF8060068467ADF93
:104D000008B1FEF773FF00213C4800F08BFA08B1B0
:104D1000FEF76CFF3AA30DF13C0C0FCB8CE80F00B3
:104D20000FA802F0EFFBADF8884045F6570022AA25
:104D30000121FEF7F3FE45F65801354B0122BDF87F
:104D40008800FEF781FE33483C21006823906846C6
:104D5000FEF72BFB02208DF8000001258DF8025094
:104D600006208DF803003C2113A8FEF71EFB23A8A4
:104D70001890ADF85C5013A96846FFF774F908B1B4
:104D8000FEF734FF1C216846FEF70FFB4FF420208E
:104D9000CDE900408010029003208DF80C001E48E1
:104DA00005901E480690ADF80E408DF810406846FC
:104DB000FFF78EF908B1FEF719FF02F00BFB02F0C6
:104DC000E5FB6FF0030077DFFEF7B1FE104C241F08
:104DD00020780128FCD10E49A288891C0720FFF702
:104DE000F1FB0B49A288891C072002F0CDFAEFE7FE
:104DF000746F727175655F6D69756E00A422002015
:104E0000000102030405060708090A0B0C0D0E0F2A
:104E1000842100206C810200956E0200614702002F
:104E200070B5144682880E4605462088111D01443F
:104E3000921C994201D8FE2A01D90C2070BD521C47
:104E400032542088FF21401C80B2208031542088B9
:104E5000401C80B220808119288803F074F82188D2
:104E6000084480B22080AA8842B1A96841B1304488
:104E7000FEF782FA2088A98808442080002070BDAF
:104E8000072070BD2DE9F05FC7888A46191D1646B8
:104E9000B1FBF7F2B1FBF7F507FB12199919394489
:104EA000C91CB1FBF7F104464079C9B2DDF828B05E
:104EB000884206D217A1BA20FFF70CF801E0246857
:104EC0006D1E002DFBD1A846A7EB0905B5421AD8E7
:104ED0001CE000BFBBF1000F06D004EB09010AEB98
:104EE00008002A46091D05E004EB09000AEB080149
:104EF0002A46001DFEF740FA2468761B4FF0000991
:104F0000A844B74201D9354600E03D46002EE1D124
:104F1000BDE8F09F2E2E5C2E2E5C636F6D706F6E61
:104F2000656E74735C6C69627261726965735C65ED
:104F300078706572696D656E74616C5F6D656D6FBB
:104F4000626A5C6E72665F6D656D6F626A2E630089
:104F500030B5024669B101F02FFC0021084C0BE08E
:104F600001EB410304EB830315685B88AB4202D17C
:104F70001160002030BD491C8142F1D3052030BDB5
:104F800014220020F8B50E46017814460546012982
:104F900001D1687830B12088821C9A422DD801292D
:104FA00002D006E00720F8BD69780144891C9942C7
:104FB00023D8181A801E87B2ADF800702188B01C63
:104FC000084469467DDF0028EDD12878022805D104
:104FD000BDF80010B94201D809210AE008210128D2
:104FE00005D16878B84202D8ADF8000001E0ADF80C
:104FF0000070BDF80000FE2801D90C20F8BD228801
:10500000401CB0542088401C80B22080315420883D
:10501000401C2080BDF80010084420800020F8BD0E
:1050200008B501216A46FEF74FF9009808BD000057
:1050300038B5040003D115A1EC20FEF74BFF002585
:105040008DF800506846FEF76DFE206862680168C2
:10505000914214D9491E01600D781CB917A1AF20E7
:10506000FEF738FF208AE16805FB00152068217AE9
:105070000278891A0279C9B28A4200D201719DF878
:105080000000FEF795FE284638BD00002E2E5C2E4F
:105090002E5C636F6D706F6E656E74735C6C6962AD
:1050A0007261726965735C62616C6C6F635C6E7275
:1050B000665F62616C6C6F632E6300002E2E5C2E47
:1050C0002E5C636F6D706F6E656E74735C6C69627D
:1050D0007261726965735C62616C6C6F635C6E7245
:1050E000665F62616C6C6F632E63000038B50C46BE
:1050F000050004D112A14FF48870FEF7EBFE24B92D
:105100000FA140F21110FEF7E5FE00208DF800001F
:105110006846FEF707FE1DB91549BC20FEF7DAFE0A
:10512000E8682A68211A288AB1FBF0F11068431C4C
:10513000136001709DF80000FEF73AFE38BD0000D4
:105140002E2E5C2E2E5C636F6D706F6E656E7473A9
:105150005C6C69627261726965735C62616C6C6FD0
:10516000635C6E72665F62616C6C6F632E630000DD
:10517000BC50020010B5040002D0206830B901E034
:105180000E2010BD17A1C620FEF7A4FE606818B956
:1051900014A1C720FEF79EFEA06818B911A1C8206F
:1051A000FEF798FEE06818B90EA1C920FEF792FE3E
:1051B000208A18B90BA1CA20FEF78CFE207A6168FC
:1051C0002268401AC0B2116004E0226811684B1CCA
:1051D00013600870401EC0B2F7D221680020087129
:1051E00010BD00002E2E5C2E2E5C636F6D706F6EF6
:1051F000656E74735C6C69627261726965735C621E
:10520000616C6C6F635C6E72665F62616C6C6F6325
:105210002E630000C20800F007030120895C98405B
:105220000840704710B560B10161172120F8021BDA
:1052300020F8021B1B2100F8021BFFF747FC00208F
:1052400010BD0E2010BD00002DE9F043858895B0FB
:105250000C46002D3DD10188DFF824810026DFF8BF
:105260002491012724293CD006DC102909D01129DA
:105270000CD023296DD150E03A290BD0552968D1A3
:105280002AE00146204601F013FE62E0A01DFFF770
:105290001DFC5EE02246408934F8061F814200D89A
:1052A00008466080172800D217206080106970B10E
:1052B000607960B1D8E90010CDE90310ADF80E5067
:1052C0006088ADF81000136903A91046984766710D
:1052D000267115B0BDE8F0830146204601F036FE88
:1052E00037E0011D342206A8FEF746F8BDF8180085
:1052F000BDF81C2004EBC0014A7322694AB3D8E907
:105300000432CDE90432ADF81200487B8DF8140068
:105310002269204604A990471BE00496059630F8C0
:10532000041F04EBC1020179127B8A4200D21146AC
:10533000ADF81010ADF812100088002204A990DF1B
:10534000020006D0B9F800000F4907EB004001F059
:105350009FF9A07A0028BCD0E18828469EDF020091
:105360000BD0112AB5D0B9F8000015B007EB0040FA
:10537000BDE8F043054901F08BB9A672E772A8E7D2
:10538000A88102001422002048850200C084020087
:1053900000F180400068002800D00120704708B567
:1053A00000F18040002101600068009008BD00000D
:1053B00000283ED01F49204A096800BF00BF00BF37
:1053C00000BF00BF00BF00BF00BF91422FD000BF91
:1053D00000BF00BF00BF00BF00BF00BF00BF00BFD5
:1053E00000BF00BF00BF00BF00BF00BF00BF00BFC5
:1053F00000BF00BF00BF00BF00BF00BF00BF00BFB5
:1054000000BF00BF00BF00BF00BF00BF00BF00BFA4
:1054100000BF00BF00BF00BF00BF00BF00BF00BF94
:1054200000BF00BF00BF00BF00BF00BF00BF01380A
:10543000C3D17047102200200024F40000283ED081
:105440001F49204A096800BF00BF00BF00BF00BF5E
:1054500000BF00BF00BF91422FD000BF00BF00BF00
:1054600000BF00BF00BF00BF00BF00BF00BF00BF44
:1054700000BF00BF00BF00BF00BF00BF00BF00BF34
:1054800000BF00BF00BF00BF00BF00BF00BF00BF24
:1054900000BF00BF00BF00BF00BF00BF00BF00BF14
:1054A00000BF00BF00BF00BF00BF00BF00BF00BF04
:1054B00000BF00BF00BF00BF00BF0138C3D17047AD
:1054C000102200200024F40070B5164C002520782E
:1054D00008B1852516E00020A06060602061E060D2
:1054E0004FF0E020D0F80001012610F0010F03D1A9
:1054F0000721002000F078F801F0C8FB08B90A483D
:1055000006602670284601F093FC034607480321F5
:10551000074A008801EB004006A101F0C0F82846C8
:1055200070BD0000C023002018050040202200208C
:10553000BE81020046756E6374696F6E3A202573F2
:105540002C206572726F7220636F64653A20257338
:105550002E00000038B5104C207820B90FA14FF470
:105560008E70FEF7B7FCE06820B90CA140F21D1068
:10557000FEF7B0FC00208DF800006846FEF7D2FB75
:10558000E068401EE060E06808B9FFF769FA9DF83E
:105590000000FEF70DFC38BDC02300202E2E5C2E2F
:1055A0002E5C636F6D706F6E656E74735C64726990
:1055B000766572735F6E72665C636C6F636B5C6E54
:1055C00072665F6472765F636C6F636B2E6300005C
:1055D00000F01F02012191404009800000F1E0200D
:1055E000C0F880117047000070B50446881E0D4653
:1055F000022807D3681F032804D310A14FF4927028
:10560000FEF768FC6807000E002C06DA04F00F01B4
:1056100001F1E02181F8140D03E004F1E02181F8AB
:10562000000404F01F01012088406109890001F194
:10563000E021C1F88002C1F8000170BD2E2E5C2E61
:105640002E5C636F6D706F6E656E74735C647269EF
:10565000766572735F6E72665C636F6D6D6F6E5CA4
:105660006E72665F6472765F636F6D6D6F6E2E63D0
:1056700000000000000B40B270470121B1EB507FE9
:1056800001D1012070470020704730B54FF48034BD
:1056900005688C4013B1C5F8044301E0C5F8084320
:1056A000006800EB8100C0F8402530BD70B50446AD
:1056B00000790B4D00EB400005EB8000007A0128DB
:1056C00003D008A1A020FEF705FC2068012101609D
:1056D0002179022001EB410105EB8101087270BDC7
:1056E000742400202E2E5C2E2E5C636F6D706F6E06
:1056F000656E74735C647269766572735F6E7266F0
:105700005C74696D65725C6E72665F6472765F74FC
:10571000696D65722E630000F0B40468049E40F267
:105720000115D4F800728D40AF43C4F800720468CC
:10573000D4F800521D43C4F800523346F0BCFFF7C2
:10574000A4BF00002DE9F84F04460D4600795749E3
:1057500000EB400001EB8006DFF85481216817461A
:10576000414503D153A14B20FEF7B4FBDFF87891FC
:105770002068484503D14FA14D20FEF7ABFBDFF871
:105780006CA12168514503D14AA14F20FEF7A2FB2D
:10579000DFF85CB12168594503D146A15220FEF7DC
:1057A00099FB2168414503D142A15520FEF792FBA8
:1057B0001DB940A15720FEF78DFB307A10B10820AB
:1057C000BDE8F88FEFB32068404507D1A9780129DB
:1057D00031D081B302292ED003292CD045498842EB
:1057E00007D1A978012926D029B3022923D003297A
:1057F00021D0484507D1A97801291CD0D9B1022967
:1058000019D0032917D0504507D1A978012912D002
:1058100089B102290FD003290DD0584507D1A878A6
:10582000012808D038B1022805D0032803D021A1CF
:105830007020FEF74FFB37606868706000200346F9
:1058400000E002E04FF4A0770AE00720B8E700BFCD
:10585000226807EB800153505158401CC0B20091A0
:1058600061798142F4D82068E978000B40B2FFF7F3
:10587000BBFE20686978D0F8042561F30102C0F806
:1058800004252068A978D0F8082561F30102C0F842
:10589000082520682978D0F8102561F30302C0F8A4
:1058A00010250120307200208AE7000074240020B7
:1058B000008000402E2E5C2E2E5C636F6D706F6E2C
:1058C000656E74735C647269766572735F6E72661E
:1058D0005C74696D65725C6E72665F6472765F742B
:1058E000696D65722E63000000A0004000A00140B9
:1058F00000B001400090004070B5054600790B49AA
:1059000000EB800001EBC00494F82200012804D0D1
:1059100007A140F27710FEF7DDFA28680521C0F8EC
:105920000015022084F8220070BD00004C240020E5
:105930002E2E5C2E2E5C636F6D706F6E656E7473B1
:105940005C647269766572735F6E72665C747769A7
:105950005F6D61737465725C6E72665F6472765FB0
:105960007477692E630000002DE9F04198461746D0
:105970000C00064603D126A1F520FEF7ABFAD4E9C8
:105980000001884203D122A1F620FEF7A3FA307964
:105990002D4900EB800001EBC00595F8220010B105
:1059A0000820BDE8F081C5E900780020A86085F8EE
:1059B000250085F82400A07B85F82700607B10B1C6
:1059C000204601F061FF216840F20C60890001F17E
:1059D000A041C1F800076168890001F1A041C1F848
:1059E0000007D4E900123068C0F80815C0F80C258B
:1059F000A168C0F82415286828B13068217B000B05
:105A000040B2FFF7F1FD012085F822000020C8E731
:105A10002E2E5C2E2E5C636F6D706F6E656E7473D0
:105A20005C647269766572735F6E72665C747769C6
:105A30005F6D61737465725C6E72665F6472765FCF
:105A40007477692E630000004C2400203EB5074D9A
:105A50002C68AD6800948DF80110019202958DF8C4
:105A600002300022694600F015F83EBD3482020083
:105A70003EB500250095069C8DF8011002958DF825
:105A8000023001920CB1202200E00022694600F0B1
:105A900001F83EBD2DE9F04106460D460079144956
:105AA00000EB800001EBC00417462068002811D1EC
:105AB0002878022806D10FA140F2B730FEF70AFA83
:105AC000206838B92878032804D10AA14FF46E70F1
:105AD000FEF700FAB80702D00620BDE8F0813B4689
:105AE0002A4620463168BDE8F04102F092B8000035
:105AF0004C2400202E2E5C2E2E5C636F6D706F6E1A
:105B0000656E74735C647269766572735F6E7266DB
:105B10005C7477695F6D61737465725C6E72665FE9
:105B20006472765F7477692E630000002DE9F0419E
:105B300090460D00064604D118A14FF48870FEF778
:105B4000C9F93079224F07EB4014E07E10B10820EC
:105B5000BDE8F081687F207729463046FEF766F978
:105B60005FEA080060602969216003D0297F304620
:105B7000FEF79AFE307907EB4010007F002830686E
:105B800001D0082100E00421C0F800150020E075D4
:105B90002076A0750121E176A076D9E72E2E5C2E25
:105BA0002E5C636F6D706F6E656E74735C6472698A
:105BB000766572735F6E72665C756172745C6E722C
:105BC000665F6472765F756172742E630000000018
:105BD0002C2400202DE9F0470E460179DFF82881BA
:105BE000044608EB41151746E87E012804D047A17A
:105BF0004FF4CC70FEF76EF927B944A140F299102A
:105C0000FEF768F926B941A14FF4CD70FEF762F9AD
:105C1000217908EB4110007F18B13046FFF72DFDC8
:105C200030B1204600F08CF820B11120BDE8F0879B
:105C30001020FBE7AF750027AE60AF8221793E46AA
:105C400008EB41154FF00108287F0028206825D077
:105C50004FF49079494601F016F94FF4AC7A514669
:105C6000206801F010F92068A97DAA68C0F84425D1
:105C7000C0F848152068C0F808806868F0B949463F
:105C8000206801F0FBF880465146206801F0F6F8E4
:105C900058EA0001F3D058BBAF750FE04FF48E7A8D
:105CA000514601F0DFF82068C0F8088029462068D6
:105CB00001F0F5FF69684FF4807089B13046B5E7AF
:105CC0005146206801F0C9F810B9A88A4845F7D1B3
:105CD000A88A484505D02946206801F0E0FF00E089
:105CE0008146A88AA97D8842EAD3A88A484501D17D
:105CF0000F26D1E75146206801F0AFF80028F9D00F
:105D00002068C0F80C80C7E72C2400202E2E5C2EC3
:105D10002E5C636F6D706F6E656E74735C64726918
:105D2000766572735F6E72665C756172745C6E72BA
:105D3000665F6472765F756172742E6300000000A6
:105D40000079044901EB4010807D002800D001203B
:105D5000704700002C24002070B5044600791149DA
:105D6000002601EB401520682A7FC0F800656868AE
:105D700088B1207901EB4010007F0028206801D015
:105D8000094901E008498C39C0F808132068FFF779
:105D900071FCFFF71DFC204601F012F9EE766E60F3
:105DA00070BD00002C240020100302000FB438B591
:105DB000040003D110A14220FEF78CF8606918B9E5
:105DC0000DA14320FEF786F8206818B90AA14420E7
:105DD000FEF780F8606818B907A14520FEF77AF849
:105DE0000599002905D006A800906A46204600F0D3
:105DF0003DF838BC5DF814FB2E2E5C2E2E5C6578C9
:105E00007465726E616C5C667072696E74665C6EED
:105E100072665F667072696E74662E6300000000C1
:105E200010B5040003D107A13120FEF753F8A26892
:105E3000002A05D0D4E90403216898470020A06017
:105E400010BD00002E2E5C2E2E5C65787465726E7F
:105E5000616C5C667072696E74665C6E72665F66B9
:105E60007072696E74662E63000000002DE9FC47B5
:105E700091460C465FEA000804D183A14FF49F705D
:105E8000FEF728F8D8F8140020B97FA14FF4A070CD
:105E9000FEF720F8D8F8000020B97BA140F24110AD
:105EA000FEF718F8D8F8040020B977A14FF4A170D4
:105EB000FEF710F8002C76D014F8011B39B1252913
:105EC0000ED04046FEF740FB20780028F4D198F829
:105ED0000C00002867D04046BDE8FC47FFF7A0BF94
:105EE0000020012221782B291BD02D2902D0302916
:105EF00008D102E040F0010001E040F00200641C23
:105F0000002AEFD100252A290ED02178A1F13002F4
:105F10000A2A11D205EB850201EB4205641C303DD3
:105F2000F1E740F00400EAE7D9F800100B1DC9F8CA
:105F300000300968641C0D44217800232E290BD100
:105F400014F8011FA1F130020A2A05D203EB8302E3
:105F500001EB4203303BF3E76C290DD068290BD0ED
:105F6000692921D00BDC252918D0582931D0632983
:105F70000ED0642915D117E014F8011FECE7702941
:105F800069D0732932D075291BD0782909D120E036
:105F9000D9F80000011DC9F8001001784046FEF74D
:105FA000D3FA641C90E76CE0D9F800100A1DC9F818
:105FB00000200968CDE900500A224046FEF720FC87
:105FC000EFE7D9F800100A1DC9F8002009680A2275
:105FD00006E0D9F800100A1DC9F80020096810224F
:105FE000CDE90050404601F0B3FFDAE7D9F80010E0
:105FF00000270A1DC9F800200E68C00705D112E06D
:106000004046761C7F1CFEF79FFA31780029F7D1B5
:1060100004E0202140466D1EFEF796FABD42C0D92D
:10602000002DF6D1BDE74EB13046FDF7C9F9074660
:1060300004E0202140466D1EFEF786FABD4206D9D7
:10604000002DF6D103E04046761CFEF77DFA31784C
:106050000029F8D1A5E7D9F80000011DC9F8001002
:10606000056830214046FEF76FFA78214046FEF77A
:106070006BFA08200021CDE90001034610222946D1
:10608000B0E7BDE8FC8700002E2E5C2E2E5C657804
:106090007465726E616C5C667072696E74665C6E5B
:1060A00072665F667072696E74665F666F726D614C
:1060B000742E63002DE9FF411C46DDE90A78154680
:1060C0000E46684600F070F846EA450141EA840150
:1060D00041EA072242EA0841009A00EB8200C0F838
:1060E0000017BDE8FF811CB5002100910B4601227D
:1060F0000191FFF7DFFF1CBD1CB500220B4600928B
:1061000011460192FFF7D6FF1CBD1CB5002100917E
:106110000B46012201911146FFF7CCFF1CBD13B5C0
:106120000C46684600F01EF8009900EB8101D1F89A
:10613000002722F44032C1F80027009900EB8100CB
:10614000D0F8001741EA0441C0F800171CBD01B5A2
:10615000684600F04BF8009A01219140C0F80C15F8
:1061600008BD000010B50068202804D303A14FF437
:10617000E870FDF7AFFE4FF0A04010BD2E2E5C2E54
:106180002E5C636F6D706F6E656E74735C647269A4
:10619000766572735F6E72665C68616C5C6E726667
:1061A0005F6770696F2E680010B50068202804D3FF
:1061B00003A14FF4E870FDF78DFE4FF0A04010BD35
:1061C0002E2E5C2E2E5C636F6D706F6E656E747319
:1061D0005C647269766572735F6E72665C68616C2E
:1061E0005C6E72665F6770696F2E680010B500683C
:1061F000202804D303A14FF4E870FDF76BFE4FF0A5
:10620000A04010BD2E2E5C2E2E5C636F6D706F6EE5
:10621000656E74735C647269766572735F6E7266C4
:106220005C68616C5C6E72665F6770696F2E680097
:1062300001B56846FFF7B8FF009A01219140C0F808
:10624000081508BD01B56846FFF7D0FF009A012187
:106250009140C0F8081508BDF8B504460B4866180B
:10626000154600680090012E04D909A14FF43A7038
:10627000FDF730FE694605E051F82400D0F810051E
:10628000641C01C5A642F7D8F8BD000030820200A8
:106290002E2E5C2E2E5C636F6D706F6E656E747348
:1062A0005C647269766572735F6E72665C68616C5D
:1062B0005C6E72665F6770696F2E6800034908B58F
:1062C0000844002101600068009008BD00600040A3
:1062D00002494058012800D000207047006000406B
:1062E00030B5124B01460020D3F81044224609E095
:1062F000157A854205D1401C0A28F7DB4FF0FF30A4
:1063000030BD5268002AF3D1421CF9D00872D3F88C
:1063100010242AB152684A60D3F81024516030BD6D
:106320000022C3F810144A6030BD000098260020F7
:10633000F0B595B01C4615460F4608461A9E00F06B
:106340000BFB182109A8FDF730F80E96CDE909548A
:106350000023082203A9384600F018FB0598069090
:106360000498ADF81C0000208DF820000398082642
:1063700000F00300012802D002281DD03CE0039861
:106380003346850AC0F3C2008DF81E0003980FA99A
:10639000C0F380008DF81F000398C0F38314A2009F
:1063A000384600F0F3FA09A8009006AB22460FA980
:1063B000284600F02DFA1FE00398840DC0F3C200B8
:1063C0008DF81E000398C0F380008DF81F00082C84
:1063D00001D2254600E0082533462A460FA9384653
:1063E00000F0D4FA2E44641B09AB06AA29460FA874
:1063F00000F05EF9002CEAD1384600F0B6FA15B08C
:10640000F0BD7047012001F06FBC000010B50448DA
:10641000FFF7A2FCBDE81040002001F065BC0000C1
:10642000B021002008B5034A00924023024AFFF73A
:106430007FFF08BD55740200982500200A4A0129F3
:1064400002EBC00007D0022907D0032907D0042996
:1064500007D0002070470220704704207047007961
:106460007047407970470000908C020010B5FFF72C
:10647000C9FF04210648FFF733FF002803DA054966
:106480004820FDF727FD02490120487210BD000099
:10649000B8210020408902002DE9F04F8DB0FEF7B1
:1064A00063F818B100200DB0BDE8F08F74480021EA
:1064B000C0F81814BFF34F8FD0E9014604EA060173
:1064C00000EB81014FF000090AE000BFC1F389121F
:1064D00002EB9151641C0C4404EA060100EB8101BB
:1064E000C9688A07F2D0002103AA804604EA0600A0
:1064F00008EB8000641CC06842F82100491C434638
:106500000229F3D3039800F00300022806D00128E3
:1065100003984FD0C04380077ED0ACE00398502250
:10652000810D8A46B2EB905F00D850210D4665F38D
:106530009F5003900831534800F0C5F907006CD014
:1065400000F00AFA4B46082203A9384600F024FA64
:1065500004EA0601701A8000001D09F1080B85424B
:1065600021D9474E0C3630B1C2B208EB8101281A4E
:1065700091460C3104E03146EAB20026914630469D
:10658000C5B25B46384600F007FA0BEB09032EB1A3
:106590002A4631464FEA070000F0FEF90AF10300EF
:1065A00004EB90043BE008EB81015B462A46384649
:1065B0000C31F1E7C0F38310062800D306200399BD
:1065C00060F38911C1F38310801C039181002D4871
:1065D00000F079F907004ED000F0BEF94B460822D2
:1065E00003A9384600F0D8F909F1080900250DE0A3
:1065F00004EA060008EB80014B46042238460C31C1
:10660000641C00F0C9F909F104096D1C0398C0F37A
:106610008310A842ECD801E00BE02CE05FB3D8F87F
:106620001054D8F81804464690B1384600F09DF949
:1066300021E0D3F8180400283FF435AF1BE0687A56
:10664000012804D1296828460A68394690476D68B0
:10665000002DF4D1384600F088F900208DF80000B4
:106660006846FDF75FFBD6F8180400B974609DF822
:106670000000FDF79DFBFDF777FF80F0010012E7BA
:10668000982600208083020000231A4600F0BCBF39
:1066900008B5012300926A4600F0B6FF08BD1CB59C
:1066A000CDE9002302236A4600F0AEFF1CBD0000C6
:1066B0002DE9F0470E4680461C46924608293ED8F2
:1066C00094F80C90002020731946104600F0D2FC7C
:1066D0000025B54206D218F805201AA12046FFF77A
:1066E00065FB03E019A12046FFF760FB6D1C082D38
:1066F000EFD317A12046FFF759FB0025B54210D272
:1067000018F80570FCF734FE0068C05D10F03E0F0D
:1067100001D03A4600E02E220EA12046FFF746FBAC
:1067200003E00DA12046FFF741FB6D1C082DE5D3CA
:1067300001222146504600F07FFC84F80C90BDE811
:10674000F087000020253032780000002020200053
:106750007C0000002563000020000000114810B5F7
:10676000FF218160002101604160C0F81814C0F869
:10677000141480F81C140C4800F0F5F800280FD110
:106780000A480B490B4B401AC108002005E000BF26
:1067900000EB400223F82200401C8842F8D300207E
:1067A00010BD00009826002080830200F08C0200BB
:1067B000908C02001422002002480349401AC008AD
:1067C00070470000F08C0200908C020013B5684600
:1067D000FEF7BEFB08B100201CBD0248009950F82E
:1067E00031001CBD908C020070B508480125D0F81E
:1067F000104480F81C5405E0657221682046496801
:1068000088476468002CF7D170BD000098260020EE
:106810002DE9FF4781460C9D00200C462F7B2873F5
:10682000984616462946184600F024FC072E42D208
:10683000DFE806F004090F161F2A360049462846ED
:10684000FFF7B4FA37E0494628462268FFF7AEFA68
:1068500031E0D4E9002349462846FFF7A7FA2AE0A9
:10686000A0680090D4E9002349462846FFF79EFA25
:1068700021E0D4E90201CDE90001D4E90023494631
:106880002846FFF793FA16E004F1080007C88DE8E0
:106890000700D4E9002349462846FFF787FA0AE0B3
:1068A00004F108000FC88DE80F00D4E90023494621
:1068B0002846FFF77BFA00222946404600F0BCFB41
:1068C0002F73BDE8FF872DE9F041058A80462D1F13
:1068D0004819C01CB0FBF5F0C6B24046FEF7A8FB55
:1068E000041E19D00020207101206071E58000276E
:1068F0002546761EC4F800800BE04046FEF798FB64
:1069000060B16179491C6171286005467F1CC0F83F
:106910000080B742F1D32046BDE8F081204600F068
:1069200002F80020F8E72DE9F041457901466B1E99
:10693000002201E00968521C9A42FBD30F6801460D
:10694000002605E038460C68FEF7D0FB2146761C91
:10695000AE42F7D3BDE8F08108B501216A46001DBB
:10696000FCF78BFC08BDFEF705BC38B50446001DDE
:1069700001216A46FCF78EFC009810F0FF0F04D14D
:106980002046BDE83840FFF7CEBF38BD38B50124FA
:106990000094FEF777FA38BD38B500240094FEF76E
:1069A00071FA38BD20B103490968016000207047C1
:1069B0000E2070470C840200FEB502460E460846C3
:1069C000FFF7F0FF00286ED1002400940194012508
:1069D00003208DF80020ADF8040002948DF80250D9
:1069E00069462020326869DF2F4F48B100F020FA55
:1069F0003988024605EB01432C491846FFF748FE4B
:106A000000948DF800508DF80140019402948DF8A7
:106A1000024069464020326869DF40B100F008FA60
:106A200002463888224905EB0040FFF731FE00940A
:106A30000A208DF800000194029469460120326812
:106A400069DF48B100F0F4F93988024605EB0143EB
:106A500018491846FFF71CFE4FF4B06000900194EF
:106A600002946946A120326869DF40B100F0E0F984
:106A700002463888104905EB0040FFF709FE0094F4
:106A8000019402948DF800406946A020326869DFC5
:106A900040B100F0CDF902463888084905EB0040C6
:106AA000FFF7F6FD0020FEBD8C220020748B020053
:106AB000BC8B0200D48A0200208B0200808A020074
:106AC0002DE9F0410446D0F800E060DF2368144D62
:106AD0000646734515D02888022707EB004072460A
:106AE00010A1FFF7DCFDF806D0F80C012168800248
:106AF00000F10050421A288816A107EB0040FFF76A
:106B0000C7FD56B1304600F093F9024628880121AE
:106B100001EB004018A1FFF7BBFD3046BDE8F08156
:106B20008C22002052414D20737461727473206175
:106B30007420307825782C2063616E206265206196
:106B4000646A757374656420746F20307825782EBC
:106B50000000000052414D2073697A652063616E28
:106B60002062652061646A757374656420746F20A7
:106B7000307825782E00000073645F626C655F6575
:106B80006E61626C6528292072657475726E656429
:106B90002025732E0000000030B593B05FF038045C
:106BA000ADF8444011A9684661DF30B105281AD01C
:106BB00013B0BDE83040FDF719B86D460B490EA87B
:106BC00000F0B2F809E00EA800F096F8D0E9002134
:106BD000284690470EA800F0E5F80EA800F08CF8C3
:106BE0000028DDD0EFE713B030BD000010840200B4
:106BF00038B5174C207808B1082038BD0125A5709C
:106C0000002000F023FB112820D0002000F03AFBE8
:106C10001048114900680090684610DF0028ECD148
:106C20002570A07060700721162000F0A2FA08B14C
:106C3000FCF7DCFF0721152000F09BFA08B1FCF7F8
:106C4000D5FF00F07BFC012000F01CFB002038BDCC
:106C50000C220020A48302005D3B02000EB50A490D
:106C6000684600F061F808E0684600F039F8D0E9BD
:106C700000108847684600F095F8684600F030F844
:106C80000028F1D10EBD0000C08302000148007849
:106C9000704700000C2200201FB5684648DF30B165
:106CA000052819D004B0BDE81040FCF79FBF0B4980
:106CB00001A800F039F809E001A800F029F8D0E9AE
:106CC00000210098904701A800F06CF801A800F09E
:106CD0001FF80028E1D0EFE71FBD00002C84020060
:106CE00010B5040003D10349C420FDF7F3F8A068F0
:106CF00010BD0000388A020010B5040003D103491A
:106D0000C420FDF7E7F8A06810BD0000388A020033
:106D100010B5040003D10349C420FDF7DBF8A068D7
:106D200010BD0000388A020070B50D46040003D182
:106D300008495020FDF7CEF81DB906495120FDF74E
:106D4000C9F82560286860602046BDE8704000F002
:106D500003B80000F085020010B5040003D110490B
:106D60003320FDF7B7F8206818B90D493420FDF736
:106D7000B1F8606818B90A493520FDF7ABF8D4E9D5
:106D800000104A68904201D1002004E0D0E90023BD
:106D90009A4202D01046A06010BD08306060F0E753
:106DA000F085020010B5040003D112496320FDF7FD
:106DB00091F8206818B90F496420FDF78BF8A06896
:106DC000002815D0216889680844A060606818B957
:106DD00008497320FDF77EF8D4E901014268914229
:106DE00006D1083060602046BDE81040FFF7B4BF10
:106DF00010BD0000F08502000C4A10B502F1F0034E
:106E00000EE0991AC91001EBD171491002EBC101D2
:106E10000C68844201D90B4602E005D201F1080258
:106E20009A42EED3002010BD486810BD6482020073
:106E300000B5FFF7E1FF002800D1014800BD0000C8
:106E4000508202004058002800D00120704708B549
:106E5000002242504058009008BD4058002800D001
:106E60000120704708B5002242504058009008BDEC
:106E7000D0F80403084000D0012070474058002893
:106E800000D00120704708B50022425040580090C1
:106E900008BD00000078002807D104483B21408845
:106EA00076DF002801D0FCF7A1BE704780210020CA
:106EB0002DE9FC418E88027900EBC605AC1D2A73D2
:106EC000C97B012902D0022904D101E0008800E039
:106ED00040882080218860880127DFF86480814213
:106EE0000CD930469EDF020025D0112A25D0B8F8F3
:106EF0000000144907EB0040FFF7CAFBA079E179D5
:106F0000884216D9002000900190287BADF800003F
:106F1000287BADF8020000226946304690DF03006E
:106F200007D0B8F80000324607EB00400649FFF7EB
:106F3000B6FBBDE8FC816771E0E72771DEE7000082
:106F400014220020C0840200908502007CB5064611
:106F50008D88C88806EBC504A41D172800D2172009
:106F60002188814200D80846608000202071218855
:106F70002846ADDF020007D00E480121008801EB52
:106F800000400D49FFF784FB6079002810D130697B
:106F900000280DD00948D0E90210CDE90010ADF865
:106FA00002506088ADF80400326969463046904767
:106FB0007CBD00001422002004850200A88102008C
:106FC00070B5034600791B4901EB40101968027F38
:106FD0004FF0FF30002AD1F80C25D1F81465D1F814
:106FE0000855D1F8104504D0C1F80C05C1F81405B6
:106FF00003E0C1F81405C1F80C051968C1F80805CB
:10700000C1F81005501C02D01046FFF76CF8701C38
:1070100002D03046FFF767F8601C02D02046FFF729
:1070200062F8681C04D02846BDE87040FFF75BB8E2
:1070300070BD00002C24002010B50C46C17949B168
:107040001AB109A12046FEF7B1FE2046BDE8104066
:10705000FEF7E6BE007A0028F3D0044804A10268D7
:107060002046FEF7A3FEECE70D0A0000E821002011
:107070002573000070B50446C0790D4600281CD168
:10708000207A50B1A179A088FFF7D8F90B4951F8BF
:1070900020200BA12846FEF789FEA0880021FFF7DB
:1070A00095FB03460549A079143951F8202028465C
:1070B000BDE8704003A1FEF779BE70BDE821002055
:1070C000257300003C25733E2025733A2000000004
:1070D000EFF30580C005C00D01D001207047EFF32C
:1070E000148040F30000401C7047000070B501267A
:1070F00070044FF0E0210025C1F88001084C4010D9
:10710000C4F84803C4F8080366602F20FEF796F918
:10711000A660044C2F20A560FEF790F9A57070BD05
:10712000001001409821002070B50546C87D0C462E
:1071300000284FF4847128460AD0FFF793FED5F853
:107140001805627EE1688854607E401C607670BDE0
:10715000FFF788FED5F8180570BD1FB501238DF81F
:1071600000308DF808100192D0E90012684690476F
:107170001FBD70B50D460446FCF748FC70B12846AB
:10718000FCF756FC68B16807000E002C0CDA04F01E
:107190000F0101F1E02181F8140D09E042F2010034
:1071A00070BD42F2020070BD04F1E02484F80004D6
:1071B000002070BD38B50021012538B1154C0128DB
:1071C00009D0032806D12078E0B916E04FF0E0207E
:1071D000C0F8805138BD8DF800106846FCF7A2FD5C
:1071E000207808B9FEF770F9E068401CE060A570EF
:1071F0009DF80000FCF7DCFD38BD07A140F25B20E4
:10720000FCF768FE07210020FEF7EEF9BDE83840E4
:10721000FEF7A0B9C02300202E2E5C2E2E5C636FDB
:107220006D706F6E656E74735C647269766572738F
:107230005F6E72665C636C6F636B5C6E72665F64DC
:1072400072765F636C6F636B2E6300003EB504461D
:107250000B496846FFF768FD0AE06846FFF740FD06
:10726000D0E900212046904740B16846FFF79AFDDB
:107270006846FFF735FD0028EFD13EBD11203EBD29
:10728000A88302003EB504460A496846FFF74CFD54
:1072900009E06846FFF724FDD0E900212046904729
:1072A0006846FFF77FFD6846FFF71AFD0028F0D11A
:1072B0003EBD0000B483020070B50028049D18D0C4
:1072C000002916D0002A14D05FF0000430F81460B2
:1072D0009E420FD100200123A34008E001EB80046F
:1072E00026680DB11E4300E09E43401C266090427C
:1072F000F4D370BD641C202CE8D370BD70B5054676
:1073000000242146284600F00AF808B1204670BD46
:10731000641CA4B2202CF4D34FF6FF7070BD012280
:107320008A40024201D001207047002070472DE9B9
:10733000F04192B080464FF0000017460D000090DB
:1073400012D000246E46A1B23846FFF7E8FF40B1E4
:10735000009935F8140006EB410188800098401C24
:107360000090641C202CEED3442269464046FCF772
:1073700003F812B0BDE8F08108B50093134601226E
:10738000FFF79AFF08BD000007B584B00120ADF8F3
:1073900000208DF8020004A8CDE9020106486946E4
:1073A0004088A6DF05480321008801EB004004A1C6
:1073B000FFF76AF907B000BD802100207422002089
:1073C0000000000002498969002900D00847704781
:1073D000EC2200201FB5094B0FCB8DE80F000748AA
:1073E00000231A4669462838FEF7BEFA002803D162
:1073F00002482838FEF780FA1FBD0000988102007D
:107400000B46024629210148FEF720BB708102008D
:1074100008B5002200920B46024629210148FEF7DA
:1074200027FB08BD7081020008B507210748FFF758
:10743000E7FF06490120891F087005A001210068A7
:1074400000906846FFF7E4FF08BD00008621002099
:10745000AA00000010B5084C0020D2B22070201DF8
:10746000FEF7B8FB08B1FCF7C1FB6078002802D03A
:1074700021780029FAD010BDAC2100202DE9F0417F
:107480000746806A14468846C8B3002531E000BF2D
:10749000B96A05EB450001EB8006B088801CFE2828
:1074A00002D90C20BDE8F0812288401C08F80200B7
:1074B00020881622401C80B2208008F800202088F6
:1074C000401C80B2208000EB0801308800F03BFDBA
:1074D0002188084480B22080B28842B1B16871B17D
:1074E0004044FBF749FF2088B188084420806D1C88
:1074F000EDB297F82C00A842CAD80020D2E7FFE7E7
:107500000720CFE710B5094A86B01ECA8DE81E00D5
:10751000014610226846FBF72FFF02208DF810006D
:1075200004A9684662DF06B010BD00008881020031
:10753000002801D1FDF766B87047000010B516208D
:10754000FCF764FA80B10F4890F800044009FCF79A
:107550006FFA60B10C4882684FF480016AB101682B
:1075600041F48001016010BD42F2010001E042F2ED
:107570000200BDE81040FCF739BB4FF0E020C0F836
:10758000001110BD16E000E08C25002010B5174852
:1075900086B0D0E90312CDE90112D0E90510CDE99A
:1075A0000310134A03A901A8FEF7CCF804461148BA
:1075B00003212246008801EB00400FA1FFF768F885
:1075C000200001D0FCF712FB0198D0F810050D4AFD
:1075D0000021C24001200346009001A8FEF79CF85C
:1075E00001A8FEF763F806B010BD00006C81020030
:1075F00029740200742200206572726F723A20258D
:1076000064000000803801002DE9F84FDFF8988011
:107610008946054692461F4669461846D8F80860CE
:10762000FCF760FFB0B3009800210446801C09E01D
:1076300000EA06025AF821C008EB8202401C491CED
:10764000C2F80CC0B942F3D3BA462F0CFFF7B4F816
:10765000B84204D815494FF4B270FCF73BFC601CEB
:10766000304008EB8000344008EB8401C760E80636
:1076700051F80C0F02D540F0040001E020F00400A6
:1076800065F3C5006AF3891069F39F2020F00300B9
:10769000401C086098F81C0402E000BFFEF7FCFEE6
:1076A0000028FBD1BDE8F88F982600208C890200C5
:1076B0002DE9F84F1D4C00256846D4E901A6FDF7D9
:1076C00075F8002738B30023009A61681CE0D1F8F0
:1076D00000C00846944503D9ACEB02020A6015E0ED
:1076E000A2EB0C0263440760D0F80CC0C16981466C
:1076F000BCF1000F08D006EB030828F07F48C0E972
:10770000018CC9F81C5005460029E0D1284661606B
:10771000FDF7E6F903E02846FDF7E2F910B150461F
:10772000FCF784FFE770BDE8F88F00009821002087
:107730000D4B10B5596831B102680C68A24204D8EB
:10774000A21A0A60C161586010BD0B4603E00B46E7
:10775000C969121B21B10C689442F8D3A41A0C60B9
:107760000260C161D86110BD982100202DE9F0416F
:10777000144E77683D462C4603E0844204D02546EB
:10778000E469002CF9D11BE0D4B1A5420BD1F86912
:10779000706040B90C49012088600021B160F07030
:1077A0002F20FDF74BFE2168E069E86110B1026807
:1077B000114401607068874202D00120BDE8F08169
:1077C0000020FBE798210020001001407CB5064610
:1077D00000240D468DF800406846FCF7A3FA01A886
:1077E00000F044FC70B10570094946609DF8040042
:1077F00048709DF80000FCF7DBFA1420FBF7CEFE82
:1078000020467CBD04249DF80000FCF7D1FAF7E780
:10781000802400202DE9F041194D6C68002C2CD0FB
:10782000184800270068A968B846401A20F07F462B
:107830002068B0420CD82146361A0744E469087C17
:1078400020B181F81080886949698847002CEFD100
:1078500029786878814206D1401CC0B2687002283D
:1078600001D185F80180064869780C3040F8217014
:10787000BDE8F0411420FBF791BEBDE8F0810000A7
:10788000982100200415014038B5044640F20C60F0
:107890002168890001F1A041C1F8000761688900F1
:1078A00001F1A041C1F800072068FEF7CBFC606839
:1078B000FEF7C8FC216840F20D60890001F1A0418B
:1078C000C1F800076168890001F1A041C1F8000713
:1078D0000420FDF76DFD0025606800906846FEF706
:1078E00085FCD0F810050099C84010F0010F02D0B7
:1078F000002D1AD00EE02068FEF729FC0420FDF7C9
:1079000057FD2068FEF79EFC0420FDF751FD6D1C1D
:10791000092DE1DB6068FEF71AFC0420FDF748FD45
:107920006068BDE83840FEF78DBC38BD01460320D5
:10793000CA0701D04FF402408A0701D548F201205E
:10794000490701D548F2022070472DE9FE4F054650
:107950000C4642F2107002901F46934600264FF4E8
:1079600082712046FFF773FA4FF492712046FFF7B9
:107970006EFA4FF48E712046FFF769FA4FF4847166
:107980002046FFF764FA002085F8260085F82300DA
:10799000012F0ED00121C4F80012012121622160C3
:1079A000296861B140F28620A860A868C4F8040381
:1079B0002BE00221EFE70298401E029005E080468E
:1079C000029805F1260A05F12309002809DDCDE911
:1079D00000785B4652464946204600F02DF80028C4
:1079E000E9D195F8230038B1D4F8C404C4F8C4042C
:1079F00010B1FFF79BFF06460298002805DCC4F88B
:107A000000850520C4F8000503263046BDE8FE8F3A
:107A100030B51C78039D944206D2095DC0F81C1550
:107A20001878401C187005E0012115B1C1610020D3
:107A300030BD4161012030BD2DE9FF4F81B00446CA
:107A400008780E9E90460F4618B998F80010B1427B
:107A500001D1012100E0002189464FF48E7B4FF4D3
:107A6000927160B12046FFF7F2F959462046FFF7C0
:107A7000EEF94FF484712046FFF7E9F94DE08A46AC
:107A80002046FFF7DFF9012540BB59462046FFF7A6
:107A9000D9F998B159462046FFF7D9F95146204601
:107AA000FFF7D0F9D0B90F980090434632462046F0
:107AB0000499FFF7ADFF00283ED02EE04FF4847B01
:107AC00059462046FFF7BEF938B359462046FFF71E
:107AD000BEF951462046FFF7B5F930B15146204670
:107AE000FFF7B5F965613D7017E098F8002004993B
:107AF0004046B24211D2D4F818358B540178701E2A
:107B0000491CC9B288F80010814203D10220C4F890
:107B1000000201E0B14200D02562B9F1000F0ED0A1
:107B20004FF4827529462046FFF78CF938B1294673
:107B30002046FFF78CF9002005B0BDE8F08F01204A
:107B4000FAE72DE9F04F87B005460C4642F2107077
:107B500004909A4693460026109F4FF48271204667
:107B6000FFF775F94FF492712046FFF770F94FF463
:107B70008E712046FFF76BF94FF484712046FFF7B2
:107B800066F90020C4F8000285F82600804685F8D2
:107B9000230001202062A06005F1260352465946C9
:107BA000204600970293FFF733FF286850B140F258
:107BB0008620A860A868C4F8040326E00498401E44
:107BC000049002E0049805F12309002809DDCDE9BD
:107BD00000A75B4649462046029AFFF72DFF002882
:107BE000ECD195F8230038B1D4F8C404C4F8C40427
:107BF00010B1FFF79BFE06460498002805DCC4F888
:107C000000850520C4F80005032607B03046BDE80E
:107C1000F08FF8B504464FF0FF30C1F8080394F830
:107C2000240020B1A068C1F804031120F8BD43F37B
:107C30008000401C84F82400180701D50620F8BDF8
:107C4000A36192E8610004F10C0787E86100907875
:107C500084F820005068E0615078C1F888051078F9
:107C6000002501280ED008B9980601D5012000E0B2
:107C7000002084F821000090937852682046FFF796
:107C800060FF06E084F82150937852682046FFF7A1
:107C90005CFE21680029D2D184F82450F8BD70B56B
:107CA0000C4605464FF48E71FFF7DCF8A18AA068F8
:107CB000415CA08A401CA082C5F81C1570BD1FB590
:107CC00000228DF800208DF80810816801918275DE
:107CD000D0E90012684690471FBD0000014901200D
:107CE00008707047AC21002010B588B004462022EF
:107CF0000E496846FBF740FB06200090C01F01902C
:107D0000029003904FF0EB7006900CB1084A00E02F
:107D1000002269460748FDF709FF08B1FBF766FF37
:107D20000448001F447008B010BD000060830200CA
:107D3000DD7C0200B02100202DE9FF470C460546FE
:107D40004FF40071FFF794F801274FF401780026F3
:107D500018B34FF4927949462846FFF77EF8E0B110
:107D600049462846FFF77EF8C5F80883A07E00B98B
:107D70006F6002208DF80000D5F88004C5F88004FB
:107D80000390E07D8DF80800E0680190E6752676A6
:107D9000D4E900126846904727E004212846FFF7FF
:107DA00067F810B34FF484712846FFF756F8E0B136
:107DB00021462846FFF7B8F9E07D617E884214D15C
:107DC000207E38B1617EE268E0752069E060267649
:107DD000667607E0A07E00B96F60C5F80883E67597
:107DE000617EE2682046FFF7B8F94FF48E7841468D
:107DF0002846FFF732F888B1A08AA17D884204D2D4
:107E000021462846FFF74BFF08E041462846FFF78A
:107E100029F8A17D11B12046FFF751FF4FF4A27858
:107E200041462846FFF719F8002812D04146284657
:107E3000FFF718F8A07E00B12F60E07D002808D081
:107E4000E675617EE26804B02046BDE8F047FFF7C2
:107E500084B9BDE8FF872DE9FF410C464FF49277C6
:107E600005463946FFF70AF80026C0B139462846CC
:107E7000FFF709F802208DF80000D5F88004C5F856
:107E800080040390D5F83C058DF80800E068019067
:107E9000E6752676D4E900126846904724E04FF450
:107EA000887739462846FEF7E9FFE8B13946284683
:107EB000FEF7E9FFD5F83C05C1B2E07D884213D159
:107EC000207E60B1E268D5F8000220F02000C5F8FD
:107ED0000002207EE0752069E060267601E0E6750C
:107EE000E2682046FFF739F94FF4A2773946284671
:107EF000FEF7C4FF68B139462846FEF7C4FFE07DAF
:107F000038B1E675D5F83C05E268C1B22046FFF706
:107F100024F94FF4907631462846FEF7AFFF00284B
:107F20000FD031462846FEF7AEFFA07D002808D0CE
:107F3000D5F84C0504B0C1B22046BDE8F041FFF7CA
:107F4000BEBEBDE8FF810870000A4870022070477D
:107F50002DE9F05F8346DDE90A4A994690460D46D1
:107F60000846012703E000BFB0FBF8F07F1C404546
:107F7000FAD2B94500D94F465FEACA7012D18CB126
:107F80005FEA8A7002D5B9F1000F01D0202607E020
:107F9000302605E031465846641EFCF7D5FA0CB190
:107FA000A742F7D35FF00106B9F1010F02D9A9F199
:107FB000010903E0B5FBF6F0404502D306FB08F6E5
:107FC000F2E7DFF83C9000BFB5FBF6F000FB16557A
:107FD00019F800105846FCF7B7FAB6FBF8F6002E71
:107FE000F2D15FEACA7009D0002C07D0A74205D2AF
:107FF00020215846641EFCF7A7FAF5E7BDE8F09F7C
:1080000040820200F8B5054680B2FCF7EFFB0400A1
:1080100013D0154E207A0027317B88420ED2A8B2A9
:1080200004F10A0175DF28B1112806D0BDE8F84037
:10803000FFF7C8B9207A401C2072F8BD2772307C47
:1080400038B1A8B23B2176DF18B1082801D0FFF77C
:10805000B9F971690029F0D08DF80070ADF80250BF
:1080600068468847F8BD0000EC2200200A494A789B
:108070008B78521CD2B2934200D100220B789342EB
:1080800001D1002070470270487800EB400001EBFE
:10809000C000001D70470000802400202DE9FC4135
:1080A0001646DDE90854CDE900541F4680460222F9
:1080B00000F00CF8002807D1CDE900543B4610220F
:1080C0003146404600F002F8BDE8FC812DE9FC5F36
:1080D0000026DDE90C4B994692468E46804627885D
:1080E000354630E0D8F80400002200EB85006946F0
:1080F0000068019001A864DF002830D19DF80000DD
:1081000050451FD10EB1002100E002212288084411
:108110001118594522D846B9521C90B2208009F84E
:1081200000E02088401C20800126218801A801EB66
:108130000902694664DF002811D120889DF80010EB
:10814000084420806D1CB8F80000A842CADC56B173
:108150002088C01B401E80B2FF2802D90C20BDE839
:10816000FC9F09F807000020F9E700002315010033
:1081700000300040000000000090004000040000BB
:10818000000003070000000023D1BCEA5F7823153C
:10819000DEEF1212000000001B0000001A000000B9
:1081A0000000980102000000770A000000000000B3
:1081B000770A0000000000007ADA000000006E720A
:1081C000665F6472765F636C6F636B5F696E697420
:1081D000006E72665F6472765F636C6F636B5F6381
:1081E000616C6962726174696F6E5F7374617274DD
:1081F000006E72665F6472765F636C6F636B5F6361
:10820000616C6962726174696F6E5F61626F7274D2
:10821000006E72665F6472765F636C6F636B5F693A
:10822000735F63616C6962726174696E67000000FC
:1082300000000050010000000000000000000000ED
:10824000303132333435363738394142434445468C
:10825000556E6B6E6F776E206572726F7220636FF2
:1082600064650000000000001089020001000000A9
:10827000D0870200020000005086020003000000C8
:1082800044880200040000009888020005000000F5
:1082900090870200060000003087020007000000FF
:1082A0008088020008000000A48702000900000086
:1082B000F08702000A000000F88802000B000000AE
:1082C000388602000C000000BC8702000D00000090
:1082D0001C8902000E000000708802000F000000E0
:1082E000AC88020010000000E088020011000000CD
:1082F00030890200800000007087020081000000C9
:10830000F486020082000000B486020083000000B0
:108310009486020084000000D086020085000000E0
:108320004887020086000000588802009000000084
:108330001087020091000000748602000082000095
:10834000C0880200018200000C8802000282000046
:1083500028880200256402000D6402000364020004
:10836000FFFFFFFFFFFFFFFFFFFFFFFFFFFFFFFF1D
:1083700000000000000000000000D601070100001E
:10838000CC210020C4210020CC210020D8250020B1
:1083900018000000000000000000000000000000C5
:1083A00000000000000A0A0794830200A483020070
:1083B00008000000CC830200DC83020008000000FB
:1083C000DC830200EC83020008000000308D020014
:1083D000388D02000000000000000000208D020027
:1083E000308D02000000000000000000F08C020050
:1083F000F88C0200F88C0200088D0200088D020043
:10840000108D0200108D0200188D020080210020C6
:10841000EC8302000C84020008000000188D0200AA
:10842000208D020000000000000000001C840200FB
:108430002C840200080000000040404040404040C2
:108440004040414141414140404040404040404027
:1084500040404040404040404005020202020202CB
:10846000020202020202020202202020202020201A
:10847000202020020202020202029090909090902E
:1084800010101010101010101010101010101010EC
:108490001010101002020202020288888888888860
:1084A000080808080808080808080808080808084C
:1084B0000808080802020202400000003984020095
:1084C00073645F626C655F67617474635F65786332
:1084D00068616E67655F6D74755F726571756573F0
:1084E0007428292072657475726E656420756E65D6
:1084F000787065637465642076616C75652030788A
:1085000025782E0073645F626C655F6761747473B5
:108510005F65786368616E67655F6D74755F7265CE
:10852000706C7928292072657475726E6564207587
:108530006E65787065637465642076616C7565201E
:10854000307825782E00000073645F626C655F6789
:1085500061705F646174615F6C656E6774685F759C
:108560007064617465282920287265706C792920EF
:1085700072657475726E656420756E65787065637A
:108580007465642076616C756520307825782E00DE
:1085900073645F626C655F6761705F646174615F83
:1085A0006C656E6774685F757064617465282920F6
:1085B000287265717565737429206F6E20636F6E04
:1085C0006E656374696F6E203078257820726574EB
:1085D00075726E656420756E657870656374656428
:1085E0002076616C756520307825782E00000000BB
:1085F0002E2E5C2E2E5C636F6D706F6E656E7473C5
:108600005C6C69627261726965735C6578706572D1
:10861000696D656E74616C5F73656374696F6E5FBD
:10862000766172735C6E72665F73656374696F6E98
:108630005F697465722E63004E52465F4552524F19
:10864000525F494E56414C49445F444154410000F9
:108650004E52465F4552524F525F534F4654444527
:10866000564943455F4E4F545F454E41424C454449
:10867000000000004E52465F4552524F525F464541
:1086800041545552455F4E4F545F454E41424C4513
:10869000440000004E52465F4552524F525F4D55C6
:1086A0005445585F554E4C4F434B5F4641494C45EE
:1086B000440000004E52465F4552524F525F4D55A6
:1086C0005445585F4C4F434B5F4641494C4544002D
:1086D0004E52465F4552524F525F4D555445585F7A
:1086E000434F4E445F494E49545F4641494C4544CF
:1086F000000000004E52465F4552524F525F4D55AA
:108700005445585F494E49545F4641494C454400E1
:108710004E52465F4552524F525F4150495F4E4F55
:10872000545F494D504C454D454E54454400000062
:108730004E52465F4552524F525F4E4F545F535513
:1087400050504F52544544004E52465F4552524F8E
:10875000525F4D4F44554C455F414C524541445941
:108760005F494E495449414C495A45440000000074
:108770004E52465F4552524F525F4D4F44554C4505
:108780005F4E4F545F494E495449414C5A4544004D
:108790004E52465F4552524F525F4E4F545F464FC6
:1087A000554E44004E52465F4552524F525F494E1D
:1087B00056414C49445F5354415445004E52465F24
:1087C0004552524F525F444154415F53495A45000C
:1087D0004E52465F4552524F525F5356435F484197
:1087E0004E444C45525F4D495353494E470000009B
:1087F0004E52465F4552524F525F494E56414C4988
:10880000445F4C454E475448000000004E52465FBE
:108810004552524F525F4452565F5457495F45523A
:10882000525F414E41434B004E52465F4552524FBC
:10883000525F4452565F5457495F4552525F444E0F
:1088400041434B004E52465F4552524F525F494E94
:108850005445524E414C00004E52465F4552524FD5
:10886000525F53544F524147455F46554C4C0000B0
:108870004E52465F4552524F525F4E554C4C00008F
:108880004E52465F4552524F525F494E56414C49F7
:10889000445F504152414D004E52465F4552524F47
:1088A000525F4E4F5F4D454D000000004E52465FF7
:1088B0004552524F525F464F5242494444454E0042
:1088C0004E52465F4552524F525F4452565F545784
:1088D000495F4552525F4F56455252554E00000077
:1088E0004E52465F4552524F525F494E56414C4997
:1088F000445F4144445200004E52465F4552524F3D
:10890000525F494E56414C49445F464C41475300E3
:108910004E52465F53554343455353004E52465FB4
:108920004552524F525F54494D454F555400000037
:108930004E52465F4552524F525F425553590000C6
:108940002E2E5C2E2E5C636F6D706F6E656E747371
:108950005C6C69627261726965735C65787065727E
:10896000696D656E74616C5F6C6F675C7372635C7C
:108970006E72665F6C6F675F64656661756C745F6D
:108980006261636B656E64732E6300002E2E5C2E35
:108990002E5C636F6D706F6E656E74735C6C696274
:1089A0007261726965735C6578706572696D656E18
:1089B00074616C5F6C6F675C7372635C6E72665F30
:1089C0006C6F675F66726F6E74656E642E63000015
:1089D0007761726E696E670064656275670000009A
:1089E0001B5B313B33306D001B5B306D00000000C2
:1089F0001B5B313B33316D001B5B313B33326D0010
:108A00001B5B313B33336D001B5B313B33346D00FB
:108A10001B5B313B33356D001B5B313B33366D00E7
:108A20001B5B313B33376D00696E666F00000000E1
:108A30006572726F720000002E2E5C2E2E5C636FCA
:108A40006D706F6E656E74735C6C69627261726971
:108A500065735C6578706572696D656E74616C5F75
:108A600073656374696F6E5F766172735C6E726654
:108A70005F73656374696F6E5F697465722E6800F9
:108A800073645F626C655F6366675F7365742829F2
:108A90002072657475726E65642025732077686531
:108AA0006E20617474656D7074696E6720746F20D8
:108AB00073657420424C455F47415454535F4346AD
:108AC000475F534552564943455F4348414E4745EA
:108AD000442E000073645F626C655F6366675F735A
